:100000000C9464030C94AB030C94AB030C948E1708
:100010000C94AB030C94AB030C94AB030C94AB03A8
:100020000C94AB030C94AB030C94BA290C948E2A59
:100030000C9469240C94AB030C94AB030C94AB03A9
:100040000C94AB030C94AB030C94AB030C94AB0378
:100050000C94AB030C94C0240C94AB030C94AB0332
:100060000C94AB030C94AB030C94AB030C94AB0358
:100070000C94AB030C94AB030C94AB030C94AB0348
:100080000C94AB030C94AB030C94AB030C94AB0338
:100090000C94AB030C94AB030C94AB030C94AB0328
:1000A0000C94AB030C94AB030C94AB0335001E0013
:1000B0001F00200021002200000000002B0014007F
:1000C0001A000800150017000000000039000400A5
:1000D0001600070009000A0000000000E1001D00F2
:1000E0001B00060019000500000000002900E000C8
:1000F000E300E2002C0000000000000023002400C8
:100100002500260027002D002E002A001C001800C4
:100110000C00120013002F00300031000B000D0006
:100120000E000F0033003400000028001100100002
:10013000360037003800E500520001512A0028003F
:10014000000035040000500051004F0029003A0023
:100150003B003C003D003E0000000000C25C00008F
:10016000C55CC75CC95C0000000000000000C35C07
:10017000C65CC85CCA5C0000000000000100000012
:10018000000000000000000000000000000001006E
:100190000100010000000000000000003F004000DE
:1001A000410042004300440045004C0000000000B4
:1001B000000000000000000000000000000000003F
:1001C000000000000000000000000000000000002F
:1001D00000000000000001004B00010000000000D2
:1001E0000000000000004A004E004D000100010028
:1001F00001000100010001000000000001000100F9
:1002000001000100010001000000000001000100E8
:1002100001000100010001000000000001000100D8
:1002200001000100010001000000000001000100C8
:1002300001000100010000000000000001000100B9
:1002400001000100010001000100010001000100A6
:100250000100010001000100010001000100010096
:100260000100010001000100000001000100010087
:100270000100010001000100010001000100010076
:100280000000010000000100010001000100010068
:100290000100010001000100000000000100010058
:1002A0000100010001000100000000000100010048
:1002B0000100010001000100000000000100010038
:1002C0000100010001000100000000000100010028
:1002D0000100010001000000000000000100010019
:1002E0000100010001000100010001000100010006
:1002F00001000100010001000100010001000100F6
:1003000001000100010001000000010001000100E6
:1003100001000100010001000100010001000100D5
:1003200000000100000001000100010000000000C9
:10033000000000002A2B2800000000000000000040
:100340000000000000000029000000002C1E3420E6
:10035000212224342627252E362D3738271E1F200C
:100360002122232425263333362E37381F04050651
:100370000708090A0B0C0D0E0F1011121314151695
:100380001718191A1B1C1D2F3130232D3504050693
:100390000708090A0B0C0D0E0F1011121314151675
:1003A0001718191A1B1C1D2F3130354C0000000086
:1003B000000000000000000000000000000000003D
:1003C0007E0F00D4FFFFFFC70000007832190A003B
:1003D000047F3F1F643214643214783C1E1E140ADA
:1003E000052223252628292A2C2D2F303233353675
:1003F000383A3B3D3E4042434547494A4C4E5051B6
:10040000535557595A5C5E6062646668696B6D6FDC
:1004100071737577797B7D7F81838587898A8C8EDF
:1004200090929496989A9C9E9FA1A3A5A7A8AAACE7
:10043000AEAFB1B3B4B6B8B9BBBCBEBFC1C2C3C521
:10044000C6C7C9CACBCCCDCED0D1D2D2D3D4D5D6C3
:10045000D7D7D8D9D9DADADBDBDBDCDCDCDCDCDDF6
:10046000DDDDDDDCDCDCDCDCDBDBDBDADAD9D9D8DA
:10047000D7D7D6D5D4D3D2D2D1D0CECDCCCBCAC972
:10048000C7C6C5C3C2C1BFBEBCBBB9B8B6B4B3B1A1
:10049000AFAEACAAA8A7A5A3A19F9E9C9A9896943C
:1004A00092908E8C8A89878583817F7D7B79777511
:1004B00073716F6D6B6968666462605E5C5A5957F0
:1004C000555351504E4C4A4947454342403E3D3BAF
:1004D0003A3836353332302F2D2C2A292826252339
:1004E00022FFAA7F55400001010101010101010124
:1004F00002020202020202020203030303030303D5
:1005000003040404040404040505050505060606A1
:100510000606070707070708080808090909090A5E
:100520000A0A0B0B0B0C0C0C0D0D0D0E0E0E0F0F03
:100530000F10101111111212131314141515161691
:100540001717181819191A1A1B1B1C1D1D1E1E1F00
:100550002020212222232424252626272829292A4F
:100560002B2C2D2D2E2F3031323233343536373877
:10057000393A3B3C3D3E3F40414243444546474873
:10058000494A4C4D4E4F50515354555658595A5B49
:100590005D5E5F616264656668696B6C6D6F7072E9
:1005A000737577787A7B7D7E8082838587888A8C55
:1005B0008E8F91939596989A9C9EA0A2A3A5A7A989
:1005C000ABADAFB1B3B5B7BABCBEC0C2C4C6C9CB80
:1005D000CDCFD1D4D6D8DBDDDFE2E4E7E9EBEEF036
:1005E000F3F5F8FAFDFF0403300000000E034D00A0
:1005F00069006E00740036003000000010034500F2
:100600007500630061006C0079006E000000040357
:10061000090409024200020100A0FA0904000001D5
:100620000301010009211101000122400007058199
:100630000308000A09040100020300000009211157
:1006400001000122220007058203200001070503A3
:10065000032000011201100100000008EDFE00005F
:100660000100010203010660FF0961A10109621591
:100670000026FF009520750881020963150026FFFA
:1006800000952075089102C005010906A101050722
:1006900019E029E7150025019508750181029501EA
:1006A000750881010507190029FF150026FF00952F
:1006B0000675088100050819012905950575019140
:1006C00002950175039101C011241FBECFEFDAE03E
:1006D000DEBFCDBF04B603FE27C08091A902909172
:1006E000AA02A091AB02B091AC028730904BA74018
:1006F000B04BD1F41092A9021092AA021092AB0250
:100700001092AC0214BE84B7877F84BF0FB6F894F2
:10071000A8958091600088618093600010926000CD
:100720000FBEE0E0F8E3099511E0A0E0B1E0ECECE9
:10073000FBE502C005900D92A237B107D9F722E080
:10074000A2E7B1E001C01D92A93AB207E1F70E9409
:1007500061260C94952D0C94000081E0089581E0B1
:1007600008950C94AF0308950C94B3031F93CF9393
:10077000DF9300D000D00F92CDB7DEB749835A8304
:100780006B833091D60189819A8131111DC0662316
:10079000B9F02223A9F00E94D421182F682F898153
:1007A0009A810E947F2169817A81812F0F900F9019
:1007B0000F900F900F90DF91CF911F910C94121416
:1007C0000E94AC21182FEFCF0E94D42169817A8139
:1007D000EDCFFC01262F408151816281738184819C
:1007E0000C94B603CF93DF93EC0160E00E94E90321
:1007F000BE01DF91CF910C94B403FF920F931F932E
:10080000CF93DF93E82FF0E0E45DFC4FF490C82F26
:10081000C695C695C695D0E0FE01E454FC4F049100
:10082000877010E0082E02C0159507950A94E2F72C
:1008300001701127C455DC4FFE01C491D0E002C005
:10084000D595C7958A95E2F7C170DD270115110589
:1008500019F081EE0E94CE19209719F086EE0E94C1
:10086000CE198F2D0E948D1ACD2B19F086EE0E9485
:100870003E1A012B41F081EEDF91CF911F910F9134
:10088000FF900C943E1ADF91CF911F910F91FF9032
:100890000895EF92FF920F931F93CF93DF93EC0194
:1008A000162F0AE08881882309F454C0813009F0AA
:1008B0004EC08981813099F47E0122E0E20EF11C64
:1008C0008A810E948D1AE7012196812F815050F371
:1008D000EFE9FFE03197F1F700C00000F7CF823079
:1008E00041F47E0182E0E80EF11C8A810E94CE195B
:1008F000EACF833041F47E01E2E0EE0EF11C8A8102
:100900000E943E1AE0CF843011F02196DDCF2A817B
:10091000229690E080E0AE014F5F5F4F2053330B93
:100920002A30310548F0019778F2EFE9FFE031977E
:10093000F1F700C00000F7CF089FB001099F700DCC
:100940001124C901860F971F2981EA01E4CF0E9473
:10095000FD03BACFDF91CF911F910F91FF90EF90E0
:10096000089560E00C9449048F929F92AF92BF92D9
:10097000CF92DF92EF92FF920F931F936B017C0156
:1009800081E090E0A0E0B0E04C015D0104C0880C83
:10099000991CAA1CBB1C4A95D2F7B501A4014C01B5
:1009A0005D0104C0880C991CAA1CBB1C2A95D2F7B7
:1009B000482959296A297B2904C0880F991FAA1F31
:1009C000BB1F0A95D2F78A019B010C211D212E2104
:1009D0003F21041715072607370789F48C299D291D
:1009E000AE29BF29BC01CD011F910F91FF90EF905F
:1009F000DF90CF90BF90AF909F908F90089580959B
:100A00009095A095B0958C219D21AE21BF21EACF74
:100A10000F93382F262F60914102709142028091EE
:100A2000430290914402042F432F0E94B4040F917B
:100A30000C94BD200E94F7240E941E23811102C045
:100A40000E94BB230C9467070C946A0708950C94CA
:100A5000260581E008950C942905CF93C82F0E94A4
:100A600027058C2FCF910C942B0508950E94E91C2B
:100A70000E9435052FEF84E39CE021508040904098
:100A8000E1F700C000000C94E4240F931F93CF9370
:100A9000DF93EC0161E00E94E9038C01BE010E943A
:100AA000E611882389F1BE01C8010E94B1038823A1
:100AB00059F1BE01C8010E944A15882329F1BE01DF
:100AC000C8010E948B158823F9F0BE01C8010E945D
:100AD000AE168823C9F0BE01C8010E94F410882315
:100AE00099F08A81882339F001158CE5180751F0B7
:100AF0000E3D1C4579F0CE01DF91CF911F910F91F2
:100B00000C94AD030E94360580E0DF91CF911F91D8
:100B10000F9108950E94BB23F7CF90E080E00895E5
:100B20000895FC01EE0FFF1FE453FC4F8591949153
:100B30000895CF93DF930E9412140E948C06EC015B
:100B4000811521E59207D0F5811530E5930708F06E
:100B500096C081159042F8F4C11581E0D807B8F429
:100B6000C03ED10588F4C03CD10508F07BC0C1303F
:100B7000D10569F0209759F0CE010497813A91058B
:100B800030F0D0E0C0E003C0C83ED105D0F7CE01C0
:100B9000DF91CF910895C11590E4D90708F06CC09A
:100BA000CE019F70C11520E3D20708F45EC0CE01CC
:100BB0009927D3FF5EC0EC01D86CE9CF811535E5EC
:100BC000930700F5811544E5940708F08DC0C11521
:100BD00083E5D80708F074C0C11592E5D90708F479
:100BE0006AC0CE018370992721E030E002C0220F55
:100BF000331F8A95E2F7C695C69580E2C89FE0014B
:100C0000112455C0811529E59207A0F4811538E516
:100C1000930708F06EC0811546E5940708F0B1CF40
:100C20000E942307C82FD0E0DC2FCC27CC27DF7110
:100C3000D062ADCFC1158AE5D80708F45FC0CE01F8
:100C400090568115904208F09CCF8D2F8F710E9495
:100C5000230790E0982F882788279F719C012C2BD1
:100C6000E901E6CFCE01805C91090E949105EC017B
:100C70008ECFEC01D06C8BCFDF70D06A88CFE4E0F0
:100C800096958795EA95E1F783702C2F2695269502
:100C9000237040E2249F90011124382B8C2F837005
:100CA000C1E0D0E002C0CC0FDD1F8A95E2F7C22B75
:100CB000D32BDC686CCFDC2FCC27C16FD06A67CF19
:100CC000CE018370992721E030E002C0220F331F4C
:100CD0008A95E2F7C695C69590E2C99FE001112476
:100CE000C22BD32BDA6853CFD82FCC27C46FD06A4E
:100CF0004ECFD82FCC27C06FD06A49CF8C2F8F70A2
:100D00000E94230734E0D695C7953A95E1F7CF7056
:100D10009C2FEC01D0693BCF82389105B1F1B0F442
:100D20008133910509F475C048F48932910509F4BD
:100D300069C08A32910509F473C00895853391051D
:100D400009F459C08933910501F10895833E910555
:100D5000A9F138F4803E9105F9F0823E910549F100
:100D60000895863E9105A9F1873E9105C9F1843E1B
:100D7000910519F520919B0221FF1FC080919A02D5
:100D800084FD14C087EE90E0089520919A022370AC
:100D9000A1F080EE90E0089520919A0220FD47C0D6
:100DA00030919B0230FF09C024FF44C090E080E0F6
:100DB00004C020919A0222FDF7CF089520919A0253
:100DC00022FD3BC030919B0230FDE3CF24FFF5CFE5
:100DD000EDCF20919A0223FFF0CF24FDE7CFD2CFB1
:100DE00020919A0223FD2CC030919B0231FFEECF5F
:100DF00084EE90E0089520919A0225FFDECF89E2EB
:100E000090E0089520919A0225FFD7CF85E390E0E6
:100E1000089520919A0226FFD0CF8AE290E00895AB
:100E200020919A0226FFC9CF81E390E0089589E3DB
:100E300090E0089583EE90E0089582EE90E00895AA
:100E400086EE90E0089590919A0292FF06C0282FB6
:100E500028712830F9F4877F846093FF06C0282F1B
:100E600028712831F1F4877E846120919B0220FF54
:100E700006C0382F38713830D9F4877F816021FF60
:100E800006C0282F28712831D1F4877E816194FD16
:100E9000877E0895282F24712430F9F68B7F88608F
:100EA000DCCF282F2471243101F78B7E8861DDCFC0
:100EB000382F3171313019F78E7F8860E0CF282FBD
:100EC0002171213121F78E7E8861E1CF08950C9444
:100ED000660708950C946907E82FF0E0E359FD4F89
:100EE00080810895089580EA8A95F1F7089508951C
:100EF0000E94D308809104018091040195E0811142
:100F000090E09093780285E0891B80937702ACE3B0
:100F1000B1E061E070E08D91E82FE295EF70F0E0D4
:100F200041A18F709B0101C0220F8A95EAF7922F91
:100F30009095942391A382A1822B82A381E0A13476
:100F4000B80749F7A4E3B1E061E070E08D91E82FC4
:100F5000E295EF70F0E041A18F709B0101C0220F7C
:100F60008A95EAF7922F9095942391A382A1822BE0
:100F700082A381E0AC33B80749F7E3E6F2E0ADE6DF
:100F8000B2E08DE692E011921D928E179F07D9F77D
:100F900085E00E947E080E941A050C94DD080E94DC
:100FA000B5088823F9F08091770290E083599D4F2E
:100FB0000E940D09811113C0809172018F5F80938F
:100FC0007201863050F0E0917702F0E0E359FD4F76
:100FD000108211821282138214820C9424051092C2
:100FE0007201FBCF8091780290E083599D4F0E945F
:100FF0002A090C9477078F929F92AF92BF92CF925B
:10100000DF92EF92FF920F931F93CF93DF938CE3C6
:10101000A82E81E0B82E03E612E0912CCC24C394D4
:10102000D12CF50181915F01C82FC295CF70D0E01E
:1010300099A18F70760101C0EE0C8A95EAF7892F8D
:101040008E2989A38AA18E2C809488218AA30E944C
:101050007307E4E3F1E050E040E020E03191A32F9A
:10106000A295AF70B0E090968C9190E03F7002C076
:10107000959587953A95E2F780FD3CC08C2D042E1E
:1010800001C0880F0A94EAF7282B4F5F5F4F483062
:10109000510521F789A1882289A28AA1E82AEAA21A
:1010A000F8018081281741F1208381E0982A0F5FA1
:1010B0001F4FF1E4AF16F1E0BF0609F0B2CF609127
:1010C000780270E063597D4F292D45E083E692E078
:1010D0000E947F080E94CF07892DDF91CF911F9139
:1010E0000F91FF90EF90DF90CF90BF90AF909F90C7
:1010F0008F90089580E0C8CF80E0D8CF0895FF9208
:101100000F931F93CF93DF93F82E092F162FD72F0E
:10111000C42F222349F081E0809375010E94992415
:101120009093740180937301809175018823A1F0DD
:1011300080917301909174010E94B124069760F030
:10114000EF2DF02FA12FBD2FCE0FDF2FD11DEC17CC
:10115000FD0741F410927501DF91CF911F910F911E
:10116000FF90089581918D93F2CF80917601811146
:1011700011C08091D80080618093D8008AE18A955F
:10118000F1F700C09091D900892F817090FF82E023
:101190008093760181E090917601913009F080E0B2
:1011A00008950C94B5080E94D108809304010E9410
:1011B000B50881110C94E40808950E94B5088111C6
:1011C00002C00C94EA08089562E070E085E091E0C6
:1011D0000C943B1762E070E085E091E00C944417BA
:1011E0000E94B30E882361F08EE791E00E94B90E51
:1011F00081E090E00E941D18892B11F40C94B60E2A
:10120000089580917D01883039F460E08EE791E0A7
:101210000E94D10F10927D010895CF93DF93D82FB4
:10122000C92F0E94F00890E080E00E941D180097EE
:1012300079F4ED2FFC2FDC01A858BE4F2C9121939F
:10124000019685309105B9F781E0DF91CF9108953E
:1012500080E0FBCFCF93DF93D82FC92F0E940109E5
:10126000ED2FFC2F90E080E02191DC01A858BE4FCB
:101270002C93019685309105B9F7DF91CF910895B0
:10128000AF92BF92CF92DF92FF920F931F93CF93B3
:10129000DF93362F472FE82FF0E0EA51FB4F711113
:1012A0000DC06491762F862FDF91CF911F910F9102
:1012B000FF90DF90CF90BF90AF900895C72FD0E000
:1012C0002491F22E022F10E056E0659FC0011124F8
:1012D000EFEFF0E0BF010E944C2C832F90E0880FCD
:1012E000991F35E5369FD001379FB00D11248A1B19
:1012F0009B0B982F990F980F6F01CC1ADD0AC09E97
:10130000D001C19EB00DD09EB00D11248B2F949FA3
:10131000A0011124452F55276F01C41AD50AC09E7C
:10132000A001C19E500DD09E500D11245F01A91A3D
:10133000B108AC9E6001AD9ED00CBC9ED00C1124B7
:10134000CD2CDD24EC19FD09E09FE001E19FD00DDB
:10135000F09FD00D1124ED2F62307105A1F048F4FB
:101360006115710569F06130710589F0EB2F852FEA
:1013700007C06430710571F088F066307105B1F70F
:101380006E2F722F91CFE22F2B2F8D2FF9CFE22FBF
:10139000252FF6CFEB2F822F2D2FF2CF2B2F8F2D36
:1013A000E52FEECF0895CF93DF93762FE901682FD5
:1013B000842F0E944009798368838A83DF91CF91CB
:1013C000089580917902982F9E7F29F48170826020
:1013D0008093790208958635E8F381708465F8CFAB
:1013E00088E090E00C94F22CCF92DF92EF92FF9283
:1013F0006B017C010E94E109B701A60188E090E041
:10140000FF90EF90DF90CF900C94102D60917902B7
:1014100070917A0280917B0290917C020C94F40985
:10142000E9E7F2E083E0808311828FEF8283838398
:101430001482ABEBB1E012968C91129783601296F6
:101440008C9360817181828193810C94F4098091E5
:10145000790280FF02C08695089580E0089580910A
:101460007D02833018F48F5F80937D026091790252
:1014700070917A0280917B0290917C020C94F40925
:1014800080917D02882319F0815080937D026091C4
:10149000790270917A0280917B0290917C020C9487
:1014A000F40980917D02089580937D02662351F0B6
:1014B0006091790270917A0280917B0290917C0216
:1014C0000C94F409089560E00C94540A80917A0217
:1014D000089580917B02089580917C02089570E0C8
:1014E0000C946311609118018091790280FF0AC009
:1014F0008091170123E0829FC001112482589D4FE3
:101500000C946F0A8091190190911A0123E0829F37
:10151000F0011124E258FD4F891750F71182108213
:1015200012828F5F3396F8CF9091790290FF14C0AA
:101530009091190120911A0133E0939FF001112439
:10154000E258FD4F921710F00C94720A8183608369
:1015500042839F5F3396F6CF0895CF93DF9300D0F9
:101560000F92CDB7DEB79091790290FF0AC09E012D
:101570002F5F3F4F0E94D3094B8169818A810E946E
:10158000940A0F900F900F90DF91CF910895CF9311
:10159000DF93EC01EC81F0E0EF51FC4F4491E9E77F
:1015A000F2E0628181810E94AD0A8C818F5F8C8321
:1015B000DF91CF910895CF93DF93EC01E9E7F2E05B
:1015C000438162818C810E94AD0A8C818F5F8C8304
:1015D000DF91CF9108950F931F93CF93DF9300D0A6
:1015E0000F92CDB7DEB78C018091860181110AC0C0
:1015F0009E012F5F3F4F4FEF6FEF0E94D3098A810B
:1016000080938601F8016481613069F080918601E0
:1016100040E0662361F040E0623011F440918601C1
:1016200080E060E004C06091860140E080E00E94BC
:10163000940AF801848190E0019663E070E00E94D2
:10164000602C84830F900F900F90DF91CF911F91AA
:101650000F910895AF92BF92CF92DF92EF92FF92D7
:101660000F931F93CF93DF9300D00F92CDB7DEB7C8
:10167000182FF62E042FE22E9091790290FF3AC097
:10168000E92FE695AE2FB0E0AA5BBE4F8C91809318
:10169000BB019E7F9230E1F59E012F5F3F4F812F6E
:1016A0000E94D3094B8169818A810E94940A8091AA
:1016B0007A02811308C080917B028F1104C080914F
:1016C0007C02801729F08091BD0182608093BD016A
:1016D00010937A02F0927B0200937C02EE2051F08C
:1016E0006091790270917A0280917B0290917C02E4
:1016F0000E94F4090F900F900F90DF91CF911F91EE
:101700000F91FF90EF90DF90CF90BF90AF90089532
:10171000823019F400917C02CACF863019F41091FE
:101720007A02C5CF8930D9F3893109F6E9518E2F74
:101730008170D82EE695F0E0EF51FB4FA590B49064
:10174000C12CBB2460911B01C61618F00E94720ABE
:10175000AECF2C2D30E0A29EC001A39E900DB29E74
:10176000900D112470E00E944C2C812FD11013C0D9
:10177000860F40911901420F532F511D9A01220FDC
:10178000331F240F351F22583D4F402F6F2D0E94CD
:10179000D309C394D7CF861BECCFE9E7F2E0918160
:1017A000282F438162818AE0890F0C942A0B81E003
:1017B0000C94CD0BE9E7F2E09181282F43816281FF
:1017C00086EF890F0C942A0B81E00C94DA0BE9E781
:1017D000F2E0628121E1620F08F46FEF282F43816C
:1017E00081810C942A0B81E00C94E70BE9E7F2E08D
:1017F000628121E1621B08F460E0282F438181812E
:101800000C942A0B81E00C94F60BE9E7F2E043819B
:1018100021E1420F08F44FEF282F628181810C945F
:101820002A0B81E00C94050CE9E7F2E0438121E109
:10183000421B08F440E0282F628181810C942A0B1E
:1018400081E00C94140C20E00C942A0BEF92FF9290
:101850001F93CF93DF93EC0110E0EE24EA94F12C78
:1018600060911B01161770F00E94720A9A818C8198
:1018700090FF27C08F5F8C83DF91CF911F91FF90E6
:10188000EF90089520911901422F410F5527551FC0
:10189000CA019A01220F331F280F391F22583D4FCA
:1018A00070E0C7010E94602C962F8C8140917C02D1
:1018B00060917B02199F800D11240E94D3091F5F44
:1018C000CFCF8150D8CF9F92AF92BF92CF92DF926D
:1018D000EF92FF920F931F93CF93DF93EC018A81D6
:1018E000BB24BA9480FD02C0BB24B3948C818111C7
:1018F0000AC081E0B81227C080911B0181508093FB
:10190000880181E08C83A12C80911B01A816F0F046
:101910000E94720A8091880191E0B9125DC0811124
:1019200056C080911B018150809388011C82DF91F9
:10193000CF911F910F91FF90EF90DF90CF90BF90CC
:10194000AF909F90089510928801DBCF009119010C
:10195000CA2CD12C0C0D1D2D111DC801880F991FEB
:10196000080F191F02581D4FF801118210821282B0
:1019700034E0E32EF12C912C80918801890D89307F
:1019800004F18770082E000C990BC816D90691F443
:1019900080917C028E9DA0018F9D500D1124559544
:1019A000479555954795980160917B0280917A0201
:1019B0000E94D3099B0CF1E0EF1AF108E9F6A39419
:1019C000A3CF87FFDFCF90911B01890FDBCF815021
:1019D00080938801BC82ABCF90E0019660911B019F
:1019E00070E00E94602C809388018C83A0CFEF92DE
:1019F000FF920F931F93CF93DF93EC018C818111A2
:101A000009C081E08C831092870192E090931601C7
:101A1000809315018091190190911A0123E0829F12
:101A2000F0011124E258FD4F891768F110E003E03E
:101A300060911B01161768F10E94720A80911501CE
:101A400020918701280F2093870190911601980F0C
:101A500090931601191654F4022E000C330B40918A
:101A60001B014150550B2417350734F081958093A5
:101A70001501813009F41C82DF91CF911F910F91E4
:101A8000FF90EF9008951182108212828F5F33963B
:101A9000CBCFE12EF12C70E0C7010E94602C209189
:101AA0001901820F482F50E020918701022E000C6F
:101AB000330BE216F306BCF020911601022E000C47
:101AC000330B2E153F057CF0809F90011124225886
:101AD0003D4F40917C0260917B0280917A020E948E
:101AE000D3091F5FA5CFFA01EE0FFF1FE40FF51F0B
:101AF000E258FD4F118210821282F3CF0F931F9391
:101B0000CF93DF938C01FC018481958101968170D4
:101B1000992795838483C0E0D5E580911B01C81780
:101B200030F0DF91CF911F910F910C94720A2091A8
:101B30001901422F4C0F5527551FCA019A01220F38
:101B4000331F280F391F22583D4F8C2F8695F801DF
:101B500044815581840F952F911D817040917C02A5
:101B600060917B028D9F802D11240E94D309CF5F4D
:101B7000D4CF0F931F93CF93DF93EC0110E000E0DD
:101B800090911B019017110609F06CF40E94720AE3
:101B90008C8190E00196817099278C83DF91CF91A1
:101BA0001F910F91089520911901A801420F511D15
:101BB0009A01220F331F240F351F22583D4F4C81AD
:101BC00060917B0280917A0296959017110651F0F0
:101BD0004CF0442349F040917C020E94D3090F5FEE
:101BE0001F4FCECF4423B9F340E0F7CF8F929F929F
:101BF000AF92BF92CF92DF92EF92FF920F931F931B
:101C0000CF93DF93FC01B280948081E0848300E075
:101C100015E05BE4A52E88248394EE24EA94F12C4D
:101C20007BE4C72ED12C80911B01081770F0DF9147
:101C3000CF911F910F91FF90EF90DF90CF90BF90C9
:101C4000AF909F908F900C94720AC02FD0E01C9F91
:101C5000F0011D9FF00D1124E457FE4F91101CC0A0
:101C60001382128220911901CE01820F911D9C01D5
:101C7000220F331F280F391F22583D4F1C9FF001A0
:101C80001D9FF00D1124E457FE4F42816181808138
:101C90000E94D3090F5FC7CF2381222379F12150FE
:101CA000238334818A2D821B311101C0822F1C9F16
:101CB000F0011D9FF00D1124E457FE4F90917C021E
:101CC000899FC0011124B6010E944C2C628321110E
:101CD00004C0332311F01482A38222E02B1510F2EA
:101CE0001C9FF0011D9FF00D1124E457FE4F8091C1
:101CF0007A02808380917B028183B4CF0E94CD2CB5
:101D0000823091400CF0AECF82E08B1530F50E940E
:101D1000CD2CB7010E94602C1C9FF0011D9FF00D7F
:101D20001124E457FE4F808322E02B15C8F40E9453
:101D3000CD2C20917B022695622F70E00E94602CB2
:101D4000280F1C9FF0011D9FF00D1124E457FE4F3A
:101D500021831282A382848285CF80917A02DCCF94
:101D600020917B02EECF8091BD0108951092BD01BC
:101D7000089525E0E9E7F2E0DC0101900D922A9553
:101D8000E1F72091BB013091BC014091BD01FC0104
:101D90002583368347830895EBEBF1E0118282813E
:101DA000846082830895E9E7F2E080818E7F8083FA
:101DB0000E94CC0EEBEBF1E08281816082832FEFF9
:101DC00080E792E0215080409040E1F700C00000A1
:101DD0000C94720AE9E7F2E080818E7F8083608153
:101DE0007181828193810E94F4090E94CC0EEBEBF9
:101DF000F1E08281816082832FEF80E792E02150C1
:101E000080409040E1F700C000000C94720A60919D
:101E10007902669570E04BE050E08CE191E00E9421
:101E2000DD2C892B19F481E08093BC010E94992458
:101E30009093B5018093B4018091BD01846080933B
:101E4000BD0108959091790290FF3AC0917081117F
:101E50002DC09260909379028091BD018160809342
:101E6000BD01662351F06091790270917A028091F0
:101E70007B0290917C020E94F40960917902669540
:101E800070E04BE050E08CE191E00E94DD2C892B6A
:101E9000A1F00E94CC0E81E08093B70140917C02BA
:101EA00060917B0280917A020C94230C8B3210F0AB
:101EB0009465D0CF880F982BCDCF0E94070FEBCF22
:101EC0000895682F90917902969581E0890F8B3261
:101ED00008F081E00C94220F81E00C94610F682FD0
:101EE0009091790296958FEF890F09F48AE20C940C
:101EF000220F81E00C946F0F61E00C94220FE9E750
:101F0000F2E080818160808386950C947C0F8091C3
:101F1000790280FD0C94EA0E0C947F0F60E00C9423
:101F2000220F8091BA01811133C00E941E238111BA
:101F300004C00E94BB230E94100A0E94F009609313
:101F4000790270937A0280937B0290937C02809155
:101F5000BD0183608093BD016E7F61F40E94100A11
:101F60000E94F0096093790270937A0280937B0259
:101F700090937C020E94E1090E94CC0E809179022C
:101F800080FF03C086950E948E0F81E08093BA0186
:101F90000895E9E7F2E080818160808386950C9462
:101FA0008E0F1F93CF93DF93EC01162F8F8180FF4D
:101FB0000CC0888180FF24C0809179028160809369
:101FC0007902888186950E94220F8F8181FF06C049
:101FD000212F4B816A8189810E942A0B8F8182FF88
:101FE00005C08E81882379F00E94070F8F8183FFBF
:101FF00003C081E08093B701DF91CF911F910895D5
:102000000E94D30EE2CF0E94CC0EF0CFEF92FF924F
:102010000F931F93CF93DF938091BC01882309F422
:1020200068C08091BB01E0917902E695E81BE093DE
:10203000B601823009F064C0F0E0E352FC4FE49155
:10204000CE2FD0E007EC1AE08091B701882389F009
:102050001092B7010E9499249E0120953095820F1D
:10206000931F9093B5018093B4011092B90110921F
:10207000B8018091B4019091B5010E94B1248C17F0
:102080009D07B8F180918B018823B1F010928B01EC
:102090008091890190918A010E94B12480339547F3
:1020A00058F00E94992490938A018093890180912D
:1020B000BD0188608093BD01E090B801F090B90146
:1020C000E091B401F091B501CE0FDF1FD093B501BF
:1020D000C093B40184EB91E0F80109958091B801B7
:1020E0009091B901892B29F4EF2819F081E08093B0
:1020F0008B01DF91CF911F910F91FF90EF90089589
:10210000863049F4F0E0E652FC4FE491CE2FD0E067
:102110000BED1AE099CF893051F4E695F0E0E952E1
:10212000FC4FE491CE2FD0E006E21CE08DCF8F3043
:1021300051F4E695F0E0EC52FC4FE491CE2FD0E064
:1021400003E61CE081CF853149F4F0E0EF52FC4F0B
:10215000E491CE2FD0E007EF1CE076CFC8EED3E0BD
:102160000EE71DE0883109F46FCF833239F4EFECCC
:10217000F3E0C591D4910BEE1AE066CFC4EFD1E045
:1021800009EB1DE0843209F45FCFC0EDD7E002ED2A
:1021900019E0853209F058CF8E2F63E00E94402C61
:1021A000E92FF0E0E453FC4FE491CE2FD0E006EFAE
:1021B0001DE04ACFFA01811101C0FB010994CF93C0
:1021C000DF93C82FD62F0E94270A8C1740F00E9459
:1021D000270A8D1720F4DF91CF910C946C0F8C2F70
:1021E000DF91CF910C947C0F1F93CF93DF93EC0181
:1021F000FB011281111110C00E9469228272FE013E
:10220000E25CFC45E431F10508F05BC0E956F24DB3
:102210000C94742C0E94870F812FDF91CF911F9116
:10222000089549E75FE06CE67FE00E94DA10F4CFA2
:102230004CE65FE069E77FE0F8CF44EE5BE067EDF6
:102240007BE0F3CF47ED5BE064EE7BE0EECF42E076
:102250005CE063EF7BE0E9CF43EF5BE062E07CE0D2
:10226000E4CF40E25CE061E17CE0DFCF41E15CE0B3
:1022700060E27CE0DACF40E45AE06FE27AE0D5CF6A
:102280004FE25AE060E47AE0D0CF81E00E947C0F18
:10229000C3CF65E082E00E94DF10BECF68E086E039
:1022A000FACF6EE089E0F7CF64E18FE0F4CF67E129
:1022B00085E1F1CF88E1EACF62E289E1ECCF83E208
:1022C000E5CF11E0A9CF539A4BB1477F5BB158607E
:1022D000EFB7F8949B01220F331F260F371F280FEB
:1022E000391F2817390741F4EFBF8FE594E00197B4
:1022F000F1F700C000000895DC016D91CD0178E098
:102300005BB9000000C067FF4BB9660F000000C05A
:1023100000C000C04BB900C07A9591F7E2CF82E2CD
:1023200090E00E94EA2C803289F483E290E00E94DF
:10233000EA2C883059F484E290E00E94EA2C91E083
:10234000853209F090E0892F8170089580E0FCCFFC
:10235000CF93C82F6FEF811160E282E290E00E947C
:10236000FE2C6FEFC11168E083E290E00E94FE2C2A
:102370006FEFC11165E284E290E0CF910C94FE2CE6
:1023800080E00E94A8110C941823089585E290E043
:102390000E94EA2C682F70E090E080E0089585E2CA
:1023A00090E00C94FE2C0E94C5110E948F118111A7
:1023B0000CC060E070E0CB010E94CF110E948A1334
:1023C0000E94761481E00C94A8110895CF93FB012C
:1023D000C281CC2309F19C0122513F4520313105B6
:1023E00020F582510E948614C0E08C2FCF91089571
:1023F00081E00E94E32043E062E081E00E94080562
:10240000F3CF81E00E94042143E062E081E00E947A
:102410000805EBCF82E0F6CF8031FFE59F0789F317
:1024200081319F45B9F3C1E0E0CF8031EFE59E07F0
:10243000F9F281319F45C9F682E0DBCF2FEFFC0135
:1024400020830895CF93DF93EC0188818138A9F030
:1024500028F4803871F0DF91CF910895823881F0AF
:102460008338C9F70E94660A89830E94690A8A83B1
:10247000F2CF0E946C0A8983EECF0E94270AFBCF1D
:102480000E94510AF8CFCF93DF93EC018881813805
:10249000E1F028F4803869F0DF91CF910895823817
:1024A00011F18338C9F70E946C0A482F6A8189812B
:1024B00008C0D9810E94690AC82F0E94660A4D2F60
:1024C0006C2FDF91CF910C94230C89810E948E0F89
:1024D0008981811104C0DF91CF910C94D30EDF91DB
:1024E000CF910C94C90F8981DF91CF910C94630A2D
:1024F000EF92FF920F931F93CF93DF93EC01062F80
:10250000DC01ED91CD01E150E33108F0BFC0F0E016
:10251000E555F24D0C94742C198289E08A83602F62
:10252000CE01DF91CF911F910F91FF90EF900C940E
:102530005C258981823069F0833071F08130D9F473
:102540000E94A5240E947A2C6A837B838C839D83BE
:10255000E6CF0E94C611F6CF7E01B2E0EB0EF11C71
:1025600010E0812F0E946C07F70181937F011F5FAC
:102570001A30B9F7D4CF602FCE010E941E12CFCFF0
:1025800089818230C1F76A817B818C819D810E9423
:102590007A2C0E94CF11C3CF4B816A8189810E941E
:1025A0005C139827892798279D838C83B8CF2C812B
:1025B0003D813227232732274B816A8189810E94FE
:1025C0007513ADCF0E948A13AACF0E944312A7CFE2
:1025D0000E942212A4CF0E94060AA1CF0E941F14BB
:1025E00089839DCF0E9421149827892798279A8351
:1025F000898395CF6B8170E089819A81AE014C5FB0
:102600005F4F9827892798270E94241488CF6B81D1
:1026100070E089819A81AE014C5F5F4F98278927CE
:1026200098270E944B147BCF0E94761478CF0E948B
:102630004913D6CF6B8170E089819A81AE014C5FDE
:102640005F4F9827892798270E94C21368CF6B8114
:1026500070E089819A81AE014C5F5F4F982789278E
:1026600098270E94E8135BCF0E94C01158CFCE017B
:102670000E945C25FFEF21EE84E0F1502040804075
:10268000E1F700C000000E94E42449CF8FEF888367
:1026900046CF84E0089590E1699FB001112450E095
:1026A000440F551F640F751F90EA899F600D711DBF
:1026B0001124CB01869608950F931F93CF93DF9338
:1026C0000E944B138C010E94EA2CC82FD0E0DC2F13
:1026D000CC27C80101960E94EA2C9E01282BC90133
:1026E000DF91CF911F910F9108950F931F93CF9377
:1026F000DF93122F032F0E944B13EC01602F0E94D7
:10270000FE2C612FCE010196DF91CF911F910F9189
:102710000C94FE2CAF92BF92CF92DF92EF92FF9279
:102720001F93CF93DF938CEAC82E80E0D82ED0E0A1
:102730007601C0E014C0F50125913491412F6C2F32
:102740008D2F0E94751382E0A80EB11C1F5F1830F8
:1027500091F780E1E80EF11CCF5FCA3019F0570104
:1027600010E0E9CFDF5F80EAC80ED11CD43001F75A
:10277000DF91CF911F91FF90EF90DF90CF90BF90AE
:10278000AF900895EF92FF920F931F93CF93DF9333
:10279000EC018A017C01E60EF71ECE018696CE156D
:1027A000DF0539F4DF91CF911F910F91FF90EF90EA
:1027B0000895C03822E0D20740F40E94EA2CF801C4
:1027C00080830F5F1F4F2196E8CFF8011082F9CF69
:1027D000CF92DF92EF92FF920F931F93CF93DF93ED
:1027E0007C016A018C01060F171FEC01CE01869651
:1027F000C017D10749F4DF91CF911F910F91FF903E
:10280000EF90DF90CF900895C03822E0D20740F4D7
:10281000FE01EE19FF09EC0DFD1D60810E94FE2CEA
:102820002196E4CF462F843038F47A3028F468308B
:1028300018F4672F0C945C1390E080E0089580E119
:1028400008958AE591E00895EF92FF920F931F9308
:10285000CF93DF93EC018A017C01E60EF71ECE01D7
:102860008A559D4FCE15DF0539F4DF91CF911F9129
:102870000F91FF90EF900895CA3521E0D20740F400
:102880000E94EA2CF80180830F5F1F4F2196E7CF4B
:10289000F8011082F9CFCF92DF92EF92FF920F935F
:1028A0001F93CF93DF937C016A018C01060F171FE2
:1028B000EC01CE018A559D4FC017D10749F4DF9135
:1028C000CF911F910F91FF90EF90DF90CF900895DF
:1028D000CA3521E0D20740F4FE01EE19FF09EC0DE4
:1028E000FD1D60810E94FE2C2196E3CFCF93DF93E4
:1028F000C6EAD2E060E0CE010E94FE2C2196C1150E
:1029000084E0D807B9F7DF91CF910895DF92EF9275
:10291000FF920F931F93CF93DF9300D000D0CDB7DA
:10292000DEB7F82E8FE08F1540F08FEF93E00E9416
:10293000EA2C06EA12E08823C1F00F900F900F9066
:102940000F90DF91CF911F910F91FF90EF90DF904B
:102950000895011584E0180781F3C8010E94EA2C4C
:10296000811101C0FA940F5F1F4FF110F2CF19824D
:102970001A821B821C82DD24D39478018FEFE81A1F
:10298000F80AC8010E94EA2C89831A828823A9F2D6
:102990009FEF980F933078F48A83D9820E5F1F4F90
:1029A000C7010E94EA2C8B83882339F2CE0101965D
:1029B0000E94B104E2CF8701F9CF0F931F93CF9309
:1029C000DF93C62FD42F022FFC0182818823C9F008
:1029D0006093C0010E9499249093BF018093BE012F
:1029E00080E28C0F883008F050C0C77081E001C0D1
:1029F000880FCA95EAF7DF91CF911F910F910C9440
:102A0000A01A1091C001161335C08091BE0190919B
:102A1000BF010E94B124883C910560F5C0E2CD0F52
:102A20001D17B9F080E2810F883040F4177081E003
:102A300001C0880F1A95EAF70E94A71AC83048F417
:102A400081E09D2F977001C0880F9A95EAF70E9448
:102A5000A01A802F0E948D1AC830B8F4D77081E078
:102A600001C0880FDA95EAF7DF91CF911F910F919E
:102A70000C94A71A80E28C0F883038F4C77081E07C
:102A800001C0880FCA95EAF7EFCFDF91CF911F9170
:102A90000F9108959C01CB01233F4CE5340731F1A0
:102AA00090F4283DFCE53F07E9F0293D4CE534076B
:102AB00069F1273D3C4579F426E241EE61EE0E9442
:102AC000DD1480E00895253FFCE53F07B9F090F064
:102AD000263F3C45B9F0FC0182818823D1F0109259
:102AE000C001089527E245EE65EEE9CF26E241EE0A
:102AF00060EEE5CF27E245EE64EEE1CF26E241EE5F
:102B000062EEDDCF27E245EE66EED9CF28E241E066
:102B1000EBCF81E00895CF93DF93EC01FB0182813D
:102B2000882309F419C1C230FCE5DF07C0F1C631C2
:102B30009CE5D90730F09E012A5F3C4529303105DC
:102B400070F50E94312390939B0280939A02C031CA
:102B5000ECE5DE0709F4CFC008F05BC0C8308CE5B7
:102B6000D80709F4B6C088F5C430ECE5DE0709F4EF
:102B7000A8C0C0F4C2308CE5D80709F49CC080918D
:102B80009A028260C330DC4509F498C080919A02B1
:102B900090919B020E943F230E94E91C80E0DF91FC
:102BA000CF91089580919A028061C630ECE5DE07EE
:102BB00009F484C080919A028860C730DC4508F42B
:102BC0007DC080919A02806279C0CC308CE5D807B4
:102BD00009F489C070F480919A028C60CA30ECE5E7
:102BE000DE0709F46BC008F478C080919A028E7FEA
:102BF00065C0CE308CE5D80709F479C080919A027F
:102C00008B7FCF30DC4508F459C080919A028F7ECB
:102C100055C0CB3FECE5DE0709F457C030F5C331B2
:102C20008CE5D80709F46FC078F4C131ECE5DE0714
:102C300009F465C0C231DC4509F0A8CF0E94E91C47
:102C400080919A028F773AC0C5318CE5D80709F494
:102C500062C008F476C080919B028160CA3FDC4567
:102C600009F094CF80939B0291CFCF3FFCE5DF0723
:102C700009F44DC088F480919B028D7FCD3F9CE587
:102C8000D90781F380919B028E7FCE3FDC4550F3C4
:102C900080919B028360E6CFC130FDE5DF0709F438
:102CA00059C008F444C080E0C230DD4509F06ECF61
:102CB0000E94BD236BCF80919A02816080939A021B
:102CC00065CF80919A028460F9CF80919B028260E7
:102CD000C9CF80919A028064F1CF0E94E91C809153
:102CE0009A028068EBCF80919A028D7FE7CF809126
:102CF0009A02877FE3CF80919A028F7DDFCF809108
:102D00009A028F7BDBCF80919A02837FD7CF80910D
:102D10009B028C7FA7CF80919A0282FB992790F922
:102D200021E0922790FB82F990FB83F9C7CF809135
:102D30009B02982F909591708E7F892B90FB81F943
:102D400091CF0E94E91C90919A02892F97FB87F9F5
:102D50008058B4CF81E0ACCF81E021CFCF93DF9317
:102D6000EB0186319C4511F50E9469229A819923D5
:102D700099F08A7A91E009F490E09093C101811171
:102D800009C089E20E9444220E94B52280E0DF91BE
:102D9000CF91089585E3F6CF8091C101811104C0E0
:102DA00089E20E944B22F0CF85E3FBCF81E0EFCF99
:102DB0008EE14A9B02C08150E1F74A9BFECF089505
:102DC0005A9880E28A95F1F75A9A0895FC013BE0FF
:102DD0003A95F1F720E090E080E031E040E14A955B
:102DE000F1F7880F4A9B02C08160232742E04A9591
:102DF000F1F7000040E14A95F1F79F5F6913EECFCC
:102E000090E19A95F1F799B132E03A95F1F7000027
:102E100040E14A95F1F792FB992790F9922720819A
:102E2000920F90830895EF92FF920F931F93CF9389
:102E3000DF930F92CDB7DEB719828C017C01E60ECD
:102E4000F11C0E151F0561F481E09981911180E05C
:102E50000F90DF91CF911F910F91FF90EF90089508
:102E60000E94D81668E0CE0101960E94E616F8018D
:102E700081938F01E6CF9093C4018093C301609347
:102E8000C201529A5A9A08959093C4018093C30143
:102E90006093C20152985A9AEA9AE9E6F0E080817A
:102EA0008F7C808308956150770B91E001C0990F6A
:102EB0006A95EAF720E031E0911108C0222391F0F1
:102EC0005A9A80E28A95F1F75A980895492F482333
:102ED00039F05A9A232740E24A95F1F79695ECCFBC
:102EE0005A98F9CF5A98EDCFFF920F931F93CF9333
:102EF000DF93EC018C01060F111DC017D10731F4CF
:102F0000DF91CF911F910F91FF900895F9900E944A
:102F1000E01668E08F2D0E945317EFCF1F920F929B
:102F20000FB60F9211240F931F932F933F934F933C
:102F30005F936F937F938F939F93AF93BF93EF9321
:102F4000FF93CF93DF930F92CDB7DEB719820E9424
:102F5000D81667E0CE0101960E94E616082F069566
:102F600006950695982F92959570202F2570920FB3
:102F7000292F2370969596958770920F891344C0D8
:102F80008981811141C08091C2018017E8F120E15F
:102F90002A95F1F75A9A529A82E08A95F1F700C081
:102FA000A8E00A9FC00111240091C3011091C4013F
:102FB000080F191F5A98F8016581662321F0868150
:102FC00097810E9474170E94E016F0E1FA95F1F7DC
:102FD0005A9852985A9A20E12A95F1F7D8011296F8
:102FE0006C911297662331F113968D919C910E94FA
:102FF0001317D801ED91FC91882311F088E001C0EE
:1030000082E080830E94D8160F90DF91CF91FF91CC
:10301000EF91BF91AF919F918F917F916F915F9150
:103020004F913F912F911F910F910F900FBE0F90D5
:103030001F901895ED91FC91E1CF0F931F93CF93C3
:10304000DF932091C201281719060CF471C08C017E
:1030500093E0000F111F9A95E1F7C091C301D09141
:10306000C401C00FD11FF894529A5A9825E02A95AE
:10307000F1F70000982F969595708570980F892F1D
:10308000837096959695980F092B0E94E01600C0C4
:1030900067E0802F0E94531780E18A95F1F75298DC
:1030A0005A9A4A9B17C087E090E04A9915C06D81F3
:1030B000662321F18E819F810E94131781111EC00A
:1030C000529A5A9AE881F98182E08083789482E06A
:1030D00090E00DC000C0E5CF019771F4529A5A9A62
:1030E000E881F98181E08083789481E090E0DF914C
:1030F000CF911F910F91089500C0D7CF0E94D8168D
:1031000020E22A95F1F75A98529A80E18A95F1F7D0
:103110006A81662321F08B819C810E9474170E9432
:10312000E016E881F9811082789490E080E0DFCFAA
:1031300084E090E0DCCF9093CA018093C9010895A8
:10314000E091C901F091CA01309721F00190F0811E
:10315000E02D099480E00895E091C901F091CA0141
:10316000309721F00280F381E02D09940895209199
:10317000C7013091C8012817390771F09093C80131
:103180008093C701E091C901F091CA01309721F005
:103190000680F781E02D099408952091C5013091B2
:1031A000C6012817390771F09093C6018093C501B5
:1031B000E091C901F091CA01309721F00084F185B6
:1031C000E02D0994089585B7806885BF85B780682C
:1031D00085BF0895089508950C94EA1808950C94F5
:1031E000EE180E94E3180E94EB180C94EC180C9453
:1031F000B5080E9490240E9478070E94D3110E9473
:103200000B250E94910F0C94EF18AF92BF92CF92B2
:10321000DF92EF92FF920F931F93CF93DF93CDB77F
:10322000DEB72A970FB6F894DEBF0FBECDBF0E945F
:10323000FB070E94F718882309F45FC08CECA82EC6
:1032400081E0B82E10E000E0C02E802F0E946C07B5
:10325000E82EF501D1905F01D81609F448C080919D
:10326000560281FD0E94720780E0FF24F394DE2461
:103270009D2D9F21B9F18E83CF82EF2081E009F44B
:1032800080E088870E9499248160782F9A878987B7
:103290004E815F8168858A850E949F19F801E453F9
:1032A000FE4F8081F826F0820E9406100E94A0182E
:1032B0009091CB01891791F10E94A0188093CB01C6
:1032C0002A960FB6F894DEBF0FBECDBFDF91CF9127
:1032D0001F910F91FF90EF90DF90CF90BF90AF9034
:1032E0000C942D058F5FFF0C883009F0C1CF0F5F64
:1032F0001F4F0A30110509F0A7CF8FEF89838A830A
:103300001B820E9499248160782F9D838C83498140
:103310005A816B818D810E949F19C6CF2A960FB664
:10332000F894DEBF0FBECDBFDF91CF911F910F91FB
:10333000FF90EF90DF90CF90BF90AF900895CF9324
:10334000DF93CDB7DEB72B970FB6F894DEBF0FBE75
:10335000CDBF4F83588769877A878B871E821D82EE
:1033600085E0FE013796DE01119601900D928A9557
:10337000E1F749815A816B817C818D819E812B96F9
:103380000FB6F894DEBF0FBECDBFDF91CF910C9486
:103390005F1FFC01808191810C941622CF93C82F6E
:1033A000882309F469C08238C1F40E94A01881FD05
:1033B00063C089E30E9444220E94B5222FEF81EE70
:1033C00094E0215080409040E1F700C0000089E384
:1033D0000E944B22CF910C94B5228338A1F40E9415
:1033E000A01880FD49C083E50E9444220E94B522B6
:1033F0002FEF81EE94E0215080409040E1F700C033
:10340000000083E5E5CF8438A1F40E94A01882FD76
:1034100033C087E40E9444220E94B5222FEF81EE40
:1034200094E0215080409040E1F700C0000087E424
:10343000CFCF8CEF8C0F813A90F46C2F80912701C5
:10344000909128010E94D423882329F08C2F0E9478
:103450004B220E94B5228C2F0E944422BBCF80E2D7
:103460008C0F883048F4C77081E001C0880FCA957E
:10347000EAF70E946C22AECFCF910895882309F419
:103480004BC0823871F40E94A01881FF45C089E3C7
:103490000E9444220E94B52289E30E944B220C9490
:1034A000B522833859F40E94A01880FF35C083E507
:1034B0000E9444220E94B52283E5EFCF843859F45C
:1034C0000E94A01882FF28C087E40E9444220E9424
:1034D000B52287E4E2CF9CEF980F913AF0F290E2A8
:1034E000980F983050F4877091E001C0990F8A9539
:1034F000EAF7892F0E947222D2CF9BE5980F933072
:1035000020F490E080E00C94B718885A873120F4BA
:1035100090E080E00C94CD180895CF93C82F0E94BE
:10352000CE19C93349F42FEF87EE93E02150804044
:103530009040E1F700C000008C2FCF910C943E1A10
:10354000882321F00E946C220C94B52208958823D0
:1035500021F00E9472220C94B5220895BF92CF925E
:10356000DF92EF92FF920F931F93CF93DF936C0143
:10357000D62FC72FFC01158112951F7002810111F2
:103580000E9489220E946222E82E882391F0002363
:10359000D1F08C2F807F803421F080E28D0F883035
:1035A00090F082E00E9400230E94622291E0E82EC7
:1035B000E926BC2EB2949FE0B922EB2DF0E0E25454
:1035C000F24D0C94742CE12CF4CF1C2F1F70C07F93
:1035D00011F01295107F0023A9F0112359F080E219
:1035E0008D0F883010F0D11109C0812F0E946C22FC
:1035F0000E94B5228D2F0E94CE1914C0812F0E94E7
:103600007C22F6CF8D2F0E943E1A112359F080E2C2
:103610008D0F883010F0D1112CC0812F0E947222A2
:103620000E94B5222B2D2850330B2430310520F475
:103630000E94A0180E942D05EE2009F477C10E9477
:103640005E2280FD73C1F60112820E9458220E9400
:10365000E320C6010E94B71C0E945822DF91CF913F
:103660001F910F91FF90EF90DF90CF90BF900C943F
:103670000421812F0E948222D3CFFC2FFF70FF2EC6
:10368000C07FC03219F0F29480EFF822DD2369F098
:10369000D13049F1002391F1112351F1F6018581D7
:1036A00080FFA8CF8F70858323C0002381F0111184
:1036B00006C00E949C228F290E94A01AB3CF11300D
:1036C000C1F70E949C228F290E94A222ABCF111128
:1036D00006C00E94AB228F2D0E94A71AA3CF1130E3
:1036E00009F4A0CFF6CF002329F0163008F09ACFC6
:1036F0008F2DE2CF153008F095CFEDCF112359F380
:10370000D93349F4FFEF27EE33E0F1502040304049
:10371000E1F700C000008D2F0E943E1A83CF8C2F4E
:10372000837009F041C001117DCF4D2F4295469520
:103730004770440F440F0D2F0F7010E030E020E071
:10374000042E04C0000F111F221F331F0A94D2F74A
:1037500060E070E0CB01D4FF0FC06FE070E080E06C
:1037600090E004C0660F771F881F991F4A95D2F713
:103770006095709580959095C695C695C370602BA1
:10378000712B822B932BC23049F058F4C13019F0C1
:103790000E94952047CF0E94832044CF0E94A720FB
:1037A00041CF0E9481203ECF8695002311F08C2FBF
:1037B0008170882309F436CF4D2F42954695477086
:1037C000440F440F0D2F0F7010E030E020E0042E66
:1037D00004C0000F111F221F331F0A94D2F760E0AC
:1037E00070E0CB01D4FF0FC06FE070E080E090E0AC
:1037F00004C0660F771F881F991F4A95D2F76095FE
:10380000709580959095C695C695C370602B712B69
:10381000822B932BC23049F058F4C13019F00E942A
:103820005A2100CF0E944821FDCE0E946C21FACE81
:103830000E94BD20F7CECF70002329F08C2F0E946C
:10384000E3208D2F39CF8D2F0E94A71A8C2F0E9435
:103850000421E8CED23F89F160F4D03FC9F0D13FD6
:1038600029F1002309F442C01111C4CE8C2F8F71AD
:1038700021C0D33F39F1D43FA1F7002369F1CF71C3
:103880008C2F0E94E32063E08C2F0E94EB22CACE93
:10389000002341F0153008F0C5CE8C2F8F710E94A7
:1038A0002721C0CE163008F0BDCEF7CF8C2F8F71F8
:1038B000002369F20E94E320B5CE8C2F8F71002384
:1038C000C9F3C5CF002329F08C2F8F710E94CE2021
:1038D000A9CE0E94C920A6CE81E00E94002312300A
:1038E00008F4A0CE82E00E9400239CCE112359F060
:1038F000D93309F010CF8FEF97EEE3E0815090407D
:10390000E040E1F706CF8C2F8F71A1CF4C2F4F7085
:103910006D2FC6010E948D050E94F91F83CE4C2F8A
:103920004F706D2FC6010E9490057CCEDF91CF9124
:103930001F910F91FF90EF90DF90CF90BF9008956F
:103940000F931F93CF93DF93EC01688179818A8174
:103950000E9420228C010E947E210E948020B801BA
:10396000CE01DF91CF911F910F910C94AE1ACF939E
:10397000DF93EC018B819C81892B29F088819981CF
:1039800089238F3F59F4DF91CF910895CE010E9492
:10399000A01CCE01DF91CF910C94F203CE010E94C6
:1039A00045058111F3CF0E946222882361F38A8149
:1039B000882349F382E0DF91CF910C9400230E9489
:1039C00089220E9499220C94B5220E9452220C94C2
:1039D000DF1C0E9479220C94E51CE92FE295EF7020
:1039E000E250EE3070F4F0E0E253F24D0C94742C9F
:1039F000803F19F020F4883E20F481E00895843F50
:103A0000E1F380E00895883EC0F3813FD1F7F5CF20
:103A100093FB882780F908950E9416220C94ED1CD0
:103A2000CF93DF9300D000D00F92CDB7DEB70F90C9
:103A30000F900F900F900F90DF91CF910895CF933B
:103A4000DF9300D000D000D0CDB7DEB726960FB6FA
:103A5000F894DEBF0FBECDBFDF91CF9108951F93C5
:103A6000CF93DF93C091D70116E08091D8018C13DA
:103A700004C0DF91CF911F910895D0E01C9FF00109
:103A80001D9FF00D1124E752FE4F4081518162814C
:103A90007381848195810E941F1D2196C770E5CF97
:103AA0004091090250910A0260910B0270910C0240
:103AB00080910D0290910E020C941F1D1F93CF93C5
:103AC000DF9380910E02807FA9F480910B028823FE
:103AD00089F08091D701C091D8016091090270915D
:103AE0000A02A0910C02B0910D02D62FD72316E046
:103AF000C81304C0DF91CF911F91089590E01097F3
:103B000011F0DF3F19F401968770F2CF189F9001F2
:103B1000199F300D1124F901E752FE4F41814713DF
:103B2000F2CF40814613EFCF42814111ECCF438168
:103B300054814A1B5B0B483C510528F780910E02CB
:103B40008F70806180930E02F901E252FE4F8081F6
:103B50008F708061808389E092E00E94B71CDF91C2
:103B6000CF911F910C942F1DAF92BF92CF92DF92F5
:103B7000EF92FF920F931F93CF93DF93CDB7DEB7F2
:103B800061970FB6F894DEBF0FBECDBF8C0185E004
:103B9000F801DE011D9601900D928A95E1F7F8017A
:103BA00040815181E28089E0C82E82E0D82E609168
:103BB0000C0270910D026115710509F461C19091BB
:103BC000090220910A02892F82238F3F09F458C1EC
:103BD000A380B480F0900B02F501E61BF70BFF20E9
:103BE00009F4FCC080910E02382F307FE83CF105CB
:103BF00008F0B2C0311179C0FE2C251323C09413F4
:103C000021C0E1101FC08F70806180930E020E945E
:103C1000501DC6010E94B71C80910E02F8018583D9
:103C20008F2D61960FB6F894DEBF0FBECDBFDF912A
:103C3000CF911F910F91FF90EF90DF90CF90BF90A9
:103C4000AF900895AB2829F0842F85238F3F09F08A
:103C500033C180E0F82FF170DF2E80FF3CC08091EF
:103C6000D7012091D80136E0821315C04D875E87B9
:103C70008D859E850E941622292F22952F70223035
:103C8000F0F0243018F59F70F1F0F8019581907FE5
:103C9000D1F4D12C1EC090E0389FF001399FF00D77
:103CA0001124E752FE4F6181651306C060816413E1
:103CB00003C062816E110FC001968770D5CF9F70CF
:103CC00011F0882331F3805E883018F3C8010E9418
:103CD000B71CFD2CA5CFEE2009F4A2CF80910E02D7
:103CE000816080930E02F12C9BCF251306C09413A4
:103CF00004C0F801EE2009F48DC04D875E878D85E4
:103D00009E850E940C1D882319F1EE2009F18091F7
:103D10000E02803270F02091090230910A02388739
:103D20002F831986BB86AA868C87CE0107960E94B0
:103D3000B71C86E0F801A9E0B2E001900D928A95E7
:103D4000E1F70E945E1D0E94501DFF24F39468CF8E
:103D5000C8010E94B71CF9CF311113C07A2DB98A5E
:103D6000A88A6E2D89890E94101D89E092E00E9428
:103D7000B71C86E0F60111928A95E9F70E94501D62
:103D8000B2CF25130FC094130DC0E1100BC0F80182
:103D90008583C8010E94B71C86E0F60111928A95BE
:103DA000E9F73ECF4D875E878D859E850E940C1D6D
:103DB000882371F2EE2061F280910E02803208F4C5
:103DC000B8CF2091090230910A023A8329831B82DD
:103DD000BD82AC828E83CE010196A9CFE83CF1056D
:103DE00008F041C0FE2CEE2009F4B2CF25132AC002
:103DF000941328C080910E0280FD1BC0982F907FE5
:103E0000C1F0F8018583903F31F0982F907F905F4B
:103E10008F70892B8583C8010E94B71C86E0F8014A
:103E2000A9E0B2E001900D928A95E1F70E94501D41
:103E3000F7CE86E0F801A9E0B2E001900D928A95F4
:103E4000E1F7EECE4D875E878D859E850E940C1D25
:103E500081116FCF80910E02816080930E02C801A4
:103E60000E94B71CDDCE7A2DB98AA88A6E2D898969
:103E70000E94101D86E0F60111928A95E9F7D6CFCF
:103E8000EE2009F465CF4D875E878D859E850E9463
:103E90000C1DF82E882309F45BCF86E0F801A9E019
:103EA000B2E001900D928A95E1F789E092E00E94DC
:103EB000C9190E945E1DBACF81E08E25CBCE1F931B
:103EC000CF93DF93CDB7DEB72C970FB6F894DEBF54
:103ED0000FBECDBF4F83588769877A878B879C87B2
:103EE000CE0107960E94B41D882369F08A859B85C0
:103EF000892B39F04F815885842F85238F3F09F016
:103F000071C016E05FC086E0FE013796DE011196B3
:103F100001900D928A95E1F78A859B85892B89F31B
:103F200088859F8189238F3F61F32091D80130E0FC
:103F3000C9010196877099274091D7014817190642
:103F400071F40E94E91C1092D8011092D70186E00A
:103F5000E9E0F2E0DF011D928A95E9F7D2CF96E021
:103F6000929FD001939FB00D1124A752BE4FFE0126
:103F7000319601900D929A95E1F78093D8010E94B5
:103F80002F1DBFCF819FC001112487529E4F0E94D9
:103F9000B41D8823E9F0E091D7011E9FF0011124A0
:103FA000E752FE4F40815181628173818481958106
:103FB0000E941F1D8091D70190E00196877099277C
:103FC0008093D7018091D7019091D8018913DACFDE
:103FD0002C960FB6F894DEBF0FBECDBFDF91CF9108
:103FE0001F91089569857A858B859C850E941F1D88
:103FF00088CFEF92FF920F931F93CF93DF938C01A3
:10400000892B81F0F12CEE24E394E8012196F8014C
:104010008491843770F4843008F05FC08130B1F04F
:104020008230A1F1DF91CF911F910F91FF90EF901E
:104030000895853709F44CC008F43DC09CE7980FFB
:10404000903780F78F770E943E1A49C00E5F1F4F4E
:10405000FE01849190E2980F983060F48770FE2DF5
:1040600001C0FF0F8A95EAF78F2F0E948C220E94D1
:10407000B52202C00E94CE198F2D815030F2EFE997
:10408000FFE03197F1F700C00000F7CF0E5F1F4F40
:10409000FE01849190E2980F983050F48770FE2DC5
:1040A00001C0FF0F8A95EAF78F2F0E949222DFCF7F
:1040B0000E943E1AE1CF0E5F1F4FFE01C491C15016
:1040C000D8F28FE99FE00197F1F700C00000F7CF29
:1040D0000E5F1F4FFE01F490CFCF0E94CE198E01CC
:1040E000CBCF08950C9471200E94722060934502FA
:1040F0007093460280934702909348020C94DF1C11
:1041000008950C9474200F931F9300914502109111
:1041100046022091470230914802602B712B822B7E
:10412000932B1F910F910C9474200F931F93009168
:1041300045021091460220914702309148026023C7
:104140007123822393231F910F910C9474200F935A
:104150001F93009145021091460220914702309131
:10416000480260277127822793271F910F910C9493
:1041700074200C9471200C94B9200E94BB20609391
:1041800041027093420280934302909344020C9444
:10419000DF1C60E070E0CB010C94BD200F931F93F7
:1041A00041E050E060E070E08A019B0104C0000F34
:1041B000111F221F331F8A95D2F7C901B8011F9121
:1041C0000F910C94BD200F931F9341E050E060E0ED
:1041D00070E004C0440F551F661F771F8A95D2F701
:1041E0008091410290914202A0914302B091440219
:1041F0008A019B01082B192B2A2B3B2BC901B801E3
:104200001F910F910C94BD200F931F9341E050E03C
:1042100060E070E004C0440F551F661F771F8A9549
:10422000D2F7CB01BA016095709580959095009179
:1042300041021091420220914302309144026023D6
:104240007123822393231F910F910C94BD200F9310
:104250001F9341E050E060E070E004C0440F551F40
:10426000661F771F8A95D2F7809141029091420292
:10427000A0914302B09144028A019B0108271927AB
:104280002A273B27C901B8011F910F910C94BD202B
:104290000F931F930091410210914202209143021B
:1042A00030914402602B712B822B932B1F910F9125
:1042B0000C94BD200F931F93009141021091420274
:1042C000209143023091440260237123822393237F
:1042D0001F910F910C94BD200F931F9300914102E9
:1042E00010914202209143023091440260277127CD
:1042F000822793271F910F910C94BD200895990F49
:10430000990F990F890F982F977041E001C0440FC2
:104310009A95EAF786958695869595E0899FF001AE
:104320001124E15FFD4F30E020E070E05191DF01AA
:104330001197CB01022E02C0969587950A94E2F759
:10434000817081958527842385278C932F5F3F4F2C
:104350002530310559F70895990F990F990F890F55
:10436000982F977086958695869525E0829FF00117
:104370001124E15FFD4F50E040E080E0219130E00A
:10438000092E02C0369527950A94E2F7217033274B
:10439000042E01C0220F0A94EAF7822B4F5F5F4F71
:1043A0004530510559F70895BF92CF92DF92EF92B1
:1043B000FF920F931F93CF93DF938C01C090410224
:1043C000D0904202E0904302F09044028091450276
:1043D00090914602A0914702B0914802C82AD92A7A
:1043E000EA2AFB2ACFE1D0E0BC2ED701C6010C2E71
:1043F00004C0B695A795979587950A94D2F780FD46
:104400000EC0219788F7B12C8B2DDF91CF911F9192
:104410000F91FF90EF90DF90CF90BF900895B8017B
:104420008C2F0E949905019761F3EECFCF93DF9314
:10443000EC010E94D421BE01DF91CF910C9499052B
:104440001F93CF93DF93EB019091D601992331F025
:10445000CB01DF91CF911F910C941622882379F024
:10446000CB010E94D421182F682FCE010E947F21FA
:10447000BE01812FDF91CF911F910C949905CB0143
:104480000E94AC21182FF4CF682F809127019091C2
:1044900028010C940A24682F80912701909128010B
:1044A0000C940C2480912701909128010C940E24E7
:1044B0008091490285958595859508958091490259
:1044C0008770089590914902977081E009F480E027
:1044D000089580915502089590915502892B8093FB
:1044E0005502089580959091550298239093550216
:1044F000089510925502089590915402892B80934B
:1045000054020895809590915402982390935402F8
:10451000089510925402089590915302892B80932C
:1045200053020895809590915302982390935302DB
:10453000089510925302089580914A0208950895B3
:104540000C949F2290914A02981721F080934A027E
:104550000C94A022089580914A02882329F0109299
:104560004A0280E00C94A0220895E0912701F09186
:104570002801809155028083E0912701F091280164
:10458000808190915402892B8083E0912701F091E2
:104590002801808190915302892B808390914A0257
:1045A000992381F0E0912701F09128018081892BE6
:1045B000808380912701909128010E94C22381115C
:1045C0000E94AB2280912701909128010C94AC1895
:1045D00008950C94E82298E0899F90011124622BA1
:1045E000609349020E94E320809149028595859558
:1045F00085950C94E9221092490280E00C94E922FE
:10460000909149028095892380934902282F277031
:1046100071F4282F082E000C330B9217130639F073
:104620008595859585950E9404210C94FB2208951B
:104630006FEF7FEF90E080E00C941C2D90E080E025
:104640000E94F82C21E08C3E9E4F09F020E0822F42
:10465000089582E090E00C94EA2C83E090E00C94C2
:10466000EA2CCF9384E090E00E94EA2CC82F81E2EC
:1046700090E00E94EA2C982F8C2FCF910895CF9331
:10468000C92F682F84E090E00E94FE2C6C2F81E2FD
:1046900090E0CF910C94FE2CAB01BC018FE090E038
:1046A0000C94102DAB01BC0183E190E00C94102D13
:1046B00060E070E0CB010C94522360E070E0CB012D
:1046C0000E944C230C9458236CEE7EEF90E080E027
:1046D0000E941C2D60E082E090E00E94FE2C60E0D1
:1046E00083E090E00E94FE2C109245021092460258
:1046F000109247021092480260E084E090E00E942D
:10470000FE2C60E081E290E00E94FE2C60E085E0FB
:1047100090E00E94FE2C60E086E090E00E94FE2C7B
:104720006FEF87E090E00E94FE2C40E050E0BA017D
:1047300088E090E00E94102D60E08DE090E00E9403
:10474000FE2C40E050E0BA0188E190E00E94102D7C
:1047500060E087E190E00E94FE2C40E050E0BA016A
:104760008CE190E00E94102D60E080E290E00E94D9
:10477000FE2C0C945D230C946423682F8EE090E053
:104780000C94FE2C9C012E5F3F4FAC01485F5F4FA5
:1047900080E02417350709F40895F90191919F01EC
:1047A0009923B9F38F5FF5CF662349F0FC01329668
:1047B00008962191261729F0E817F907D1F780E02C
:1047C000089581E008959C01FC0132969FEF80E0FE
:1047D0004191461751F09F3F19F4411101C0982FA4
:1047E0008F5F8630A9F79F3F09F40895290F311D87
:1047F00097FD3A95F90162830895FC013296089677
:104800002191261303C0DF0111971C92E817F907C5
:10481000B9F708950C94E3230C94FD23029626E047
:10482000FC0111922A95E9F70895089508950C94D2
:1048300016240E9417248091A002843049F110921E
:10484000570288E190E020E40FB6F894A895809391
:1048500060000FBE2093600080E00E942D050E9442
:10486000172483B7817F846083BF83B7816083BF50
:104870007894889583B78E7F83BF0FB6F894A895F8
:1048800080916000886180936000109260000FBE8C
:1048900008950895CF930E9415240E94FB070E945B
:1048A0004924C0E08C2F0E946C07811105C0CF5FA6
:1048B000CA30C1F7CF91089581E0FCCF08950C94E0
:1048C0005E240E94E91C0E94A0180E942D050C94F1
:1048D0005F241F921FB61F9211248F939F93AF9353
:1048E000BF9380915702811113C0809196029091DD
:1048F0009702A0919802B09199024196A11DB11D15
:104900008093960290939702A0939802B093990295
:10491000BF91AF919F918F911F901FBE1F901895CF
:1049200082E084BD93E095BD9AEF97BD80936E00C1
:1049300008952FB7F8948091960290919702A091D4
:104940009802B09199022FBF08952FB7F894609103
:1049500096027091970280919802909199022FBFD0
:1049600008959C014FB7F894809196029091970218
:10497000A0919802B09199024FBF821B930B0895AA
:1049800078941F921FB61F9211248F939F93AF9319
:10499000BF938091960290919702A0919802B09156
:1049A00099020196A11DB11D8093960290939702E2
:1049B000A0939802B0939902BF91AF919F918F916C
:1049C0001F901FBE1F90189587E797E790930108E7
:1049D0008093000888E19AE00FB6F894A895809338
:1049E00060000FBE90936000FFCF0C94C0110E9436
:1049F000FB078FE39CE90197F1F700C000000E94DC
:104A0000FB0780E00E946C0780FF04C00E94F52431
:104A10000C94E42408950E941E23811102C00E9478
:104A2000BB230E942923809356020E943123909336
:104A30009B0280939A020E942D23682F70E090E0E1
:104A400080E00C948120809160020895089508957B
:104A5000CF93DF93EC010E944327823011F0843022
:104A600039F581E08093E9008FEF9091E800815063
:104A700095FD06C095ED9A95F1F700008111F5CFEF
:104A80008091E80085FF14C050E040E068E070E0ED
:104A9000CE010E9460278091E8008E778093E80025
:104AA00088E0FE01A8E5B2E001900D928A95E1F759
:104AB000DF91CF9108950895CF93FC01603221F5E5
:104AC0008091A002843001F5C091E900CF7020915F
:104AD000EC00922F917020FD90E8C92B82E080932A
:104AE000E9008091E80080FF0CC050E040E060E207
:104AF00070E0CF010E9460278091E8008E7780935C
:104B0000E800CF70C093E900CF91089580919F0293
:104B1000811109C00E943F290E949C298091E200D6
:104B200084608093E200089510929F020895089592
:104B300008950C94612442E061EC81E00E94BB285E
:104B400042E261EC82E00E94BB2842E260EC83E03A
:104B50000C94BB288091A202833009F45FC030F42A
:104B60008130C1F1823009F49BC008958A3009F484
:104B700087C08B3009F46DC0893009F04EC0809138
:104B8000A102813209F049C08091A5029091A6024C
:104B9000892B09F042C08091E800877F8093E8006C
:104BA0008091E80082FF35C09091F3008091F2007F
:104BB000029729F48091F1008B7F813021F480915C
:104BC000F100809360028091E8008B778093E80089
:104BD0000C94EF288091A102813AF9F48091E800C9
:104BE000877F8093E8008091A5029091A602892B8F
:104BF00061F468E088E592E070E00E94FE27809111
:104C0000E8008B778093E800089560E090E080E012
:104C1000F3CF8091A0028111C3CF08958091A102AA
:104C2000813AD9F78091A5029091A602892BA9F724
:104C30008091E800877F8093E8008091E80080FF02
:104C4000FCCF809133018093F1008091E8008E7752
:104C5000BDCF8091A102813201F78091A502909190
:104C6000A602892BD1F68091E800877F8093E80027
:104C70000E94EF288091A302809333010C94E91CD9
:104C80008091A102813249F68091E800877F80936C
:104C9000E8000E94EF288091A402809361020895A9
:104CA0008091A102813A09F0B8CF8091E800877F16
:104CB0008093E8008091E80080FFFCCF8091610242
:104CC000C2CFCDB7DEB7A0970FB6F894DEBF0FBE48
:104CD000CDBF84B7877F84BF0FB6F894A895809125
:104CE0006000886180936000109260000FBE80E8D1
:104CF00090E00FB6F89480936100909361000FBE2E
:104D00000E94F1180E943F290E949C298091E20094
:104D100084608093E20078940E94252C0E94F91808
:104D200089E291E00E949B1813E08091A0028530F7
:104D300039F10E9405198091A0028430B1F71093D7
:104D4000E9008091E80082FFF0CF8091E80090E0D8
:104D500085FF09C050E040E060E270E0CE010196BE
:104D60000E94AF2791E08091E8008B778093E80064
:104D70009923D9F260E2CE0101960E947812D5CF34
:104D80000E94192480919E02882379F20E944A246D
:104D9000882359F20E944A27C8CF0C94CF26E92FC6
:104DA000FF27E330F105F1F060F4E130F10509F49B
:104DB00053C0329709F455C0F0E0E0E090E080E0A5
:104DC00029C0E132F10509F438C0E232F105A1F75A
:104DD0006115710509F44AC086E696E061307105F7
:104DE000C9F0EACF992781309105C9F0009761F0A9
:104DF00082309105D9F00397F9F6E6EEF5E0E491FB
:104E0000F0E086EE95E006C0EEE0F6E0E491F0E03A
:104E10008EE096E0DA018D939C93CF010895ECEF3C
:104E2000F5E0E491F0E08CEF95E0F4CFECEEF5E006
:104E3000E491F0E08CEE95E0EDCFE9E0F0E084E283
:104E400096E06115710531F3E9E0F0E08DE396E05D
:104E500061307105F9F2B0CFE2E1F0E084E596E06F
:104E6000D9CFE2E4F0E082E196E0D4CFE0E4F0E0F4
:104E700088E896E0CFCF8091A002843011F482E0E0
:104E8000089581E0089580916202811102C00C941E
:104E90003B27089580E189BD82E189BD09B400FE08
:104EA000FDCF8091D8008F7D8093D8008091E00065
:104EB00082608093E0008091E00081FDFCCF089546
:104EC000AF92BF92CF92DF92FF920F931F93CF9337
:104ED000DF936C01EB018A010E940E29F82E8111EB
:104EE00023C00115110539F0F80180819181C81B9B
:104EF000D90BC80ED91EB12CA12C2097A9F08091F6
:104F0000E80085FD22C08091E8008E778093E8005C
:104F100001151105A1F0F80180819181A80EB91E3B
:104F2000B182A08285E0F82E8F2DDF91CF911F9165
:104F30000F91FF90DF90CF90BF90AF9008950E94A7
:104F40000E298823D1F2F82EEFCFF60181916F015F
:104F50008093F1002197FFEFAF1ABF0ACECFAF9237
:104F6000BF92CF92DF92FF920F931F93CF93DF9365
:104F70006C01EB018A010E940E29F82E811123C0D9
:104F80000115110539F0F80180819181C81BD90BF9
:104F9000C80ED91EB12CA12C2097A9F08091E80051
:104FA00085FD22C08091E8008B778093E800011591
:104FB0001105A1F0F80180819181A80EB91EB1827E
:104FC000A08285E0F82E8F2DDF91CF911F910F9158
:104FD000FF90DF90CF90BF90AF9008950E940E2970
:104FE0008823D1F2F82EEFCF8091F100F601819362
:104FF0006F012197FFEFAF1ABF0ACECFFC0180915E
:10500000A7029091A80286179707A0F06115710575
:1050100029F49091E8009E779093E80090E0611564
:10502000710551F4911108C08091E80082FF34C0ED
:1050300080E00895BC01F2CF8091A0028823C1F1E5
:105040008530C1F18091E80083FD30C08091E80097
:1050500082FDEACF8091E80080FFE1CF8091F300EC
:105060002091F200382F6115710519F028303105B3
:1050700058F091E02830310509F090E02091E800E7
:105080002E772093E800CBCF81918093F10061507F
:1050900071092F5F3F4FE7CF8091A002882341F035
:1050A000853041F08091E80083FFBECF81E0089514
:1050B00082E0089583E00895FC018091A702909119
:1050C000A80286179707A0F06115710529F4809151
:1050D000E8008E778093E80090E06115710551F447
:1050E000911108C08091E80082FF35C080E00895EA
:1050F000BC01F2CF8091A0028823C9F18530C9F1AB
:105100008091E80083FD31C08091E80082FDEACF04
:105110008091E80080FFE1CF8091F3002091F200C0
:10512000382F6115710519F02830310558F091E0DC
:105130002830310509F090E08091E8008E77809367
:10514000E800CBCF84918093F100319661507109D2
:105150002F5F3F4FE6CF8091A002882341F085303A
:1051600041F08091E80083FFBDCF81E0089582E0A7
:10517000089583E00895982F973028F08F708093DA
:10518000E90081E008959093E900242F762F50E004
:10519000981731F07091EC002091ED005091F000E3
:1051A00021FD02C09F5FE8CF3091EB003E7F30933E
:1051B000EB003091ED003D7F3093ED003091EB003E
:1051C00031603093EB007093EC002093ED0050932E
:1051D000F0002091EE0027FDE5CF80E0089580915A
:1051E000A10287FF13C08091E80082FF06C0809172
:1051F000E8008B778093E80004C08091A0028111C1
:10520000F2CF08958091A0028823D9F38091E8001D
:1052100080FFF8CF8091E8008E77ECCF2091E400FA
:105220003091E50095E6A9012091EC00822F817074
:1052300020FF06C08091E80080FF06C080E008954E
:105240002091E80022FD1AC08091A002882389F0F5
:10525000853089F08091EB0085FD0FC02091E4003E
:105260003091E50042175307F9F29150E1F684E0DE
:10527000089582E0089583E0089581E008950E94F2
:10528000AD290E94B529E0EEF0E080818160808345
:10529000E8EDF0E080818F77808319BCA7EDB0E066
:1052A0008C918E7F8C9380818F7E808310929F0261
:1052B00008950F931F93CF93DF930E94AD290E940F
:1052C000B529C8EDD0E088818F7788838881806890
:1052D000888388818F7D888319BC1092A0021092E8
:1052E0009C0210929E0210929D0200EE10E0F801C6
:1052F00080818B7F808388818160888342E060E049
:1053000080E00E94BB28E1EEF0E080818E7F808308
:10531000E2EEF0E08081816080838081886080831C
:10532000F80180818E7F8083888180618883DF910E
:10533000CF911F910F910895E8EDF0E080818F7E6D
:105340008083E7EDF0E080818160808384E082BF2C
:1053500081E080939F020C945929E8EDF0E0808170
:105360008E7F80831092E20008951092DA001092EE
:10537000E10008951F920F920FB60F9211242F9300
:105380003F934F935F936F937F938F939F93AF93CD
:10539000BF93EF93FF938091E10082FF0BC0809158
:1053A000E20082FF07C08091E1008B7F8093E100E3
:1053B0000E94242C8091DA0080FF19C08091D800CF
:1053C00080FF15C08091DA008E7F8093DA00809193
:1053D000D90080FF96C080E189BD82E189BD09B412
:1053E00000FEFDCF81E08093A0020E94862580917F
:1053F000E10080FF19C08091E20080FF15C080911C
:10540000E2008E7F8093E2008091E20080618093D1
:10541000E2008091D80080628093D80019BC85E0BA
:105420008093A0020E9498258091E10084FF2BC008
:105430008091E20084FF27C080E189BD82E189BDBF
:1054400089B5982F917080FFFBCF8091D8008F7D18
:105450008093D8008091E1008F7E8093E10080915D
:10546000E2008F7E8093E2008091E2008160809371
:10547000E20080919C02882309F449C084E0809373
:10548000A0020E9499258091E10083FF29C08091AC
:10549000E20083FF25C08091E100877F8093E100D7
:1054A00082E08093A00210929C028091E1008E7FA6
:1054B0008093E1008091E2008E7F8093E2008091F2
:1054C000E20080618093E20042E060E080E00E94C0
:1054D000BB288091F00088608093F0000E9497259F
:1054E000FF91EF91BF91AF919F918F917F916F91BC
:1054F0005F914F913F912F910F900FBE0F901F9092
:10550000189519BC1092A0020E94942570CF80912A
:10551000E30087FD93E09093A002B3CF1F920F9218
:105520000FB60F9211242F933F934F935F936F9376
:105530007F938F939F93AF93BF93CF93DF93EF931B
:10554000FF93D091E900DF708091EC00C82FC1700B
:1055500080FDC0E81092E9008091F000877F809381
:10556000F00078940E94D22A1092E9008091F00015
:1055700088608093F000CD2BCF70C093E900FF913D
:10558000EF91DF91CF91BF91AF919F918F917F91DB
:105590006F915F914F913F912F910F900FBE0F90A0
:1055A0001F9018951F93CF93DF93CDB7DEB7AA97BF
:1055B0000FB6F894DEBF0FBECDBF81EA92E0209116
:1055C000F100FC012193CF01F2E0893A9F07B9F77E
:1055D0000E94AA258091E80083FF1EC18091A1024C
:1055E0009091A2029A3008F017C1E92FF0E0E4523E
:1055F000F24D0C94742C803899F0823809F00CC16B
:105600008091A5028F70873008F006C18093E90071
:105610008091EB0085FB882780F91092E90006C095
:1056200080919D0290919E02911182609091E8007C
:10563000977F9093E8008093F1001092F1008091A1
:10564000E8008E77E5C0882309F4D3C0823009F0E2
:10565000E3C08091A3028111D6C08091A5028F7012
:105660002FEF280F263008F0D7C08093E900209153
:10567000EB0020FFC8C0933031F48091EB008062D2
:105680008093EB00C0C09091EB0090619093EB0091
:1056900021E030E001C0220F8A95EAF72093EA006A
:1056A0001092EA008091EB008860EACF8111B4C0CB
:1056B0001091A3021F778091E3008078812B809363
:1056C000E3008091E800877F8093E8000E94EF2844
:1056D0008091E80080FFFCCF8091E3008068809398
:1056E000E30082E0111183E08093A00295C080580E
:1056F000823008F091C08091A3029091A4028C3D69
:1057000023E09207A1F583E08A838AE289834FB779
:10571000F894DE01139620E03EE051E2E32FF0E042
:1057200050935700E49120FF03C0E295EF703F5F74
:10573000EF708E2F90E0EA30C0F0C7968D939D9366
:105740002F5F243159F74FBF8091E800877F809306
:10575000E8006AE270E0CE0101960E94FE27809187
:10576000E8008B778093E80057C0C096E7CF609140
:10577000A5027091A602AE014F5F5F4F0E94CD2639
:10578000BC01892B09F448C09091E800977F909361
:10579000E80089819A810E945C28E1CF8038E1F598
:1057A0008091E800877F8093E80080919C0280933D
:1057B000F10045CF811130C09091A302923060F585
:1057C0008091E800877F8093E80090939C020E947C
:1057D000EF2880919C02882311F084E005C080911D
:1057E000E30087FDFACF81E08093A0020E949B2511
:1057F00013C08091A302813079F481E0933009F0E5
:1058000080E080939E021092E9008091E800877FFB
:105810008093E8000E94EF288091E80083FF0AC08F
:105820008091E800877F8093E8008091EB008062A0
:105830008093EB00AA960FB6F894DEBF0FBECDBFE3
:10584000DF91CF911F9108950895CF938091A00289
:105850008823A1F0C091E900CF709091EC00892FCE
:10586000817090FD80E8C82B1092E9008091E800DB
:1058700083FD0E94D22ACF70C093E900CF91089592
:10588000991B79E004C0991F961708F0961B881F92
:105890007A95C9F780950895AA1BBB1B51E107C0F3
:1058A000AA1FBB1FA617B70710F0A61BB70B881FB0
:1058B000991F5A95A9F780959095BC01CD0108953F
:1058C00097FB072E16F4009407D077FD09D00E94AD
:1058D0004C2C07FC05D03EF4909581959F4F089580
:1058E000709561957F4F0895EE0FFF1F0590F4911D
:1058F000E02D099469279627692778278727782735
:1059000008958F929F92AF92BF92CF92DF92EF92C3
:10591000FF92CF93DF93EC01688179818A819B812B
:10592000611571058105910521F464E279ED8BE53E
:1059300097E02DE133EF41E050E00E94322D490124
:105940005A019B01AC01A7EAB1E40E94512D6B0101
:105950007C01ACEEB4EFA50194010E945F2DDC0147
:10596000CB018C0D9D1DAE1DBF1DB7FF03C0019760
:10597000A109B04888839983AA83BB839F77DF916D
:10598000CF91FF90EF90DF90CF90BF90AF909F901E
:105990008F9008950E94812C089580E091E00E94EC
:1059A000812C0895B0E0A0E0809300019093010164
:1059B000A0930201B09303010895FC0141505040AF
:1059C00030F001900616D1F73197CF01089588275E
:1059D00099270895F999FECF92BD81BDF89A99272C
:1059E00080B50895A6E1B0E044E050E00C94242D89
:1059F000A8E1B0E042E050E00C94242D262FF99964
:105A0000FECF92BD81BDF89A019700B4021639F01D
:105A10001FBA20BD0FB6F894FA9AF99A0FBE0895EE
:105A20000396272F0E94FF2C0E94FE2C252F0E94F8
:105A3000FF2C242F0C94FF2C0196272F0E94FF2C63
:105A40000C94FE2CDC01CB01FC01F999FECF06C0C1
:105A5000F2BDE1BDF89A319600B40D92415050402C
:105A6000B8F70895052E97FB1EF400940E94492D67
:105A700057FD07D00E94642D07FC03D04EF40C9410
:105A8000492D50954095309521953F4F4F4F5F4F91
:105A9000089590958095709561957F4F8F4F9F4F9A
:105AA00008950E94862DA59F900DB49F900DA49FF0
:105AB000800D911D11240895B7FF0C94512D0E9463
:105AC000512D821B930B0895A1E21A2EAA1BBB1B1A
:105AD000FD010DC0AA1FBB1FEE1FFF1FA217B307BA
